{
  "_format": "hh-sol-artifact-1",
  "contractName": "Voting",
  "sourceName": "contracts/Voting.sol",
  "abi": [
    {
      "inputs": [
        {
          "internalType": "string[]",
          "name": "_candidateNames",
          "type": "string[]"
        },
        {
          "internalType": "uint256",
          "name": "_durationMinutes",
          "type": "uint256"
        }
      ],
      "stateMutability": "nonpayable",
      "type": "constructor"
    },
    {
      "inputs": [
        {
          "internalType": "string",
          "name": "_name",
          "type": "string"
        }
      ],
      "name": "addCandidate",
      "outputs": [],
      "stateMutability": "nonpayable",
      "type": "function"
    },
    {
      "inputs": [
        {
          "internalType": "uint256",
          "name": "",
          "type": "uint256"
        }
      ],
      "name": "candidates",
      "outputs": [
        {
          "internalType": "string",
          "name": "name",
          "type": "string"
        },
        {
          "internalType": "uint256",
          "name": "voteCount",
          "type": "uint256"
        }
      ],
      "stateMutability": "view",
      "type": "function"
    },
    {
      "inputs": [],
      "name": "getCandidates",
      "outputs": [
        {
          "components": [
            {
              "internalType": "string",
              "name": "name",
              "type": "string"
            },
            {
              "internalType": "uint256",
              "name": "voteCount",
              "type": "uint256"
            }
          ],
          "internalType": "struct Voting.Candidate[]",
          "name": "",
          "type": "tuple[]"
        }
      ],
      "stateMutability": "view",
      "type": "function"
    },
    {
      "inputs": [],
      "name": "owner",
      "outputs": [
        {
          "internalType": "address",
          "name": "",
          "type": "address"
        }
      ],
      "stateMutability": "view",
      "type": "function"
    },
    {
      "inputs": [
        {
          "internalType": "uint256",
          "name": "candidateIndex",
          "type": "uint256"
        }
      ],
      "name": "vote",
      "outputs": [],
      "stateMutability": "nonpayable",
      "type": "function"
    },
    {
      "inputs": [
        {
          "internalType": "address",
          "name": "",
          "type": "address"
        }
      ],
      "name": "voters",
      "outputs": [
        {
          "internalType": "bool",
          "name": "",
          "type": "bool"
        }
      ],
      "stateMutability": "view",
      "type": "function"
    },
    {
      "inputs": [],
      "name": "votingEnd",
      "outputs": [
        {
          "internalType": "uint256",
          "name": "",
          "type": "uint256"
        }
      ],
      "stateMutability": "view",
      "type": "function"
    },
    {
      "inputs": [],
      "name": "votingStart",
      "outputs": [
        {
          "internalType": "uint256",
          "name": "",
          "type": "uint256"
        }
      ],
      "stateMutability": "view",
      "type": "function"
    }
  ],
  "bytecode": "0x608060405234801561001057600080fd5b50604051611858380380611858833981810160405281019061003291906103c7565b60005b82518110156100c8576000604051806040016040528085848151811061005e5761005d610423565b5b602002602001015181526020016000815250908060018154018082558091505060019003906000526020600020906002020160009091909190915060008201518160000190816100ae9190610669565b506020820151816001015550508080600101915050610035565b5033600160006101000a81548173ffffffffffffffffffffffffffffffffffffffff021916908373ffffffffffffffffffffffffffffffffffffffff16021790555042600381905550603c8161011e919061076a565b4261012991906107ac565b60048190555050506107e0565b6000604051905090565b600080fd5b600080fd5b600080fd5b6000601f19601f8301169050919050565b7f4e487b7100000000000000000000000000000000000000000000000000000000600052604160045260246000fd5b6101988261014f565b810181811067ffffffffffffffff821117156101b7576101b6610160565b5b80604052505050565b60006101ca610136565b90506101d6828261018f565b919050565b600067ffffffffffffffff8211156101f6576101f5610160565b5b602082029050602081019050919050565b600080fd5b600080fd5b600067ffffffffffffffff82111561022c5761022b610160565b5b6102358261014f565b9050602081019050919050565b60005b83811015610260578082015181840152602081019050610245565b60008484015250505050565b600061027f61027a84610211565b6101c0565b90508281526020810184848401111561029b5761029a61020c565b5b6102a6848285610242565b509392505050565b600082601f8301126102c3576102c261014a565b5b81516102d384826020860161026c565b91505092915050565b60006102ef6102ea846101db565b6101c0565b9050808382526020820190506020840283018581111561031257610311610207565b5b835b8181101561035957805167ffffffffffffffff8111156103375761033661014a565b5b80860161034489826102ae565b85526020850194505050602081019050610314565b5050509392505050565b600082601f8301126103785761037761014a565b5b81516103888482602086016102dc565b91505092915050565b6000819050919050565b6103a481610391565b81146103af57600080fd5b50565b6000815190506103c18161039b565b92915050565b600080604083850312156103de576103dd610140565b5b600083015167ffffffffffffffff8111156103fc576103fb610145565b5b61040885828601610363565b9250506020610419858286016103b2565b9150509250929050565b7f4e487b7100000000000000000000000000000000000000000000000000000000600052603260045260246000fd5b600081519050919050565b7f4e487b7100000000000000000000000000000000000000000000000000000000600052602260045260246000fd5b600060028204905060018216806104a457607f821691505b6020821081036104b7576104b661045d565b5b50919050565b60008190508160005260206000209050919050565b60006020601f8301049050919050565b600082821b905092915050565b60006008830261051f7fffffffffffffffffffffffffffffffffffffffffffffffffffffffffffffffff826104e2565b61052986836104e2565b95508019841693508086168417925050509392505050565b6000819050919050565b600061056661056161055c84610391565b610541565b610391565b9050919050565b6000819050919050565b6105808361054b565b61059461058c8261056d565b8484546104ef565b825550505050565b600090565b6105a961059c565b6105b4818484610577565b505050565b5b818110156105d8576105cd6000826105a1565b6001810190506105ba565b5050565b601f82111561061d576105ee816104bd565b6105f7846104d2565b81016020851015610606578190505b61061a610612856104d2565b8301826105b9565b50505b505050565b600082821c905092915050565b600061064060001984600802610622565b1980831691505092915050565b6000610659838361062f565b9150826002028217905092915050565b61067282610452565b67ffffffffffffffff81111561068b5761068a610160565b5b610695825461048c565b6106a08282856105dc565b600060209050601f8311600181146106d357600084156106c1578287015190505b6106cb858261064d565b865550610733565b601f1984166106e1866104bd565b60005b82811015610709578489015182556001820191506020850194506020810190506106e4565b868310156107265784890151610722601f89168261062f565b8355505b6001600288020188555050505b505050505050565b7f4e487b7100000000000000000000000000000000000000000000000000000000600052601160045260246000fd5b600061077582610391565b915061078083610391565b925082820261078e81610391565b915082820484148315176107a5576107a461073b565b5b5092915050565b60006107b782610391565b91506107c283610391565b92508282019050808211156107da576107d961073b565b5b92915050565b611069806107ef6000396000f3fe608060405234801561001057600080fd5b50600436106100885760003560e01c8063462e91ec1161005b578063462e91ec1461011657806385a38635146101325780638da5cb5b14610150578063a3ec138d1461016e57610088565b80630121b93f1461008d57806306a49fce146100a9578063101158af146100c75780633477ee2e146100e5575b600080fd5b6100a760048036038101906100a2919061065f565b61019e565b005b6100b1610316565b6040516100be919061082a565b60405180910390f35b6100cf610411565b6040516100dc919061085b565b60405180910390f35b6100ff60048036038101906100fa919061065f565b610417565b60405161010d9291906108c0565b60405180910390f35b610130600480360381019061012b9190610a25565b6104d3565b005b61013a6105c9565b604051610147919061085b565b60405180910390f35b6101586105cf565b6040516101659190610aaf565b60405180910390f35b61018860048036038101906101839190610af6565b6105f5565b6040516101959190610b3e565b60405180910390f35b60035442101580156101b257506004544211155b6101f1576040517f08c379a00000000000000000000000000000000000000000000000000000000081526004016101e890610ba5565b60405180910390fd5b600260003373ffffffffffffffffffffffffffffffffffffffff1673ffffffffffffffffffffffffffffffffffffffff16815260200190815260200160002060009054906101000a900460ff161561027e576040517f08c379a000000000000000000000000000000000000000000000000000000000815260040161027590610c11565b60405180910390fd5b6001600260003373ffffffffffffffffffffffffffffffffffffffff1673ffffffffffffffffffffffffffffffffffffffff16815260200190815260200160002060006101000a81548160ff0219169083151502179055506001600082815481106102ec576102eb610c31565b5b9060005260206000209060020201600101600082825461030c9190610c8f565b9250508190555050565b60606000805480602002602001604051908101604052809291908181526020016000905b82821015610408578382906000526020600020906002020160405180604001604052908160008201805461036d90610cf2565b80601f016020809104026020016040519081016040528092919081815260200182805461039990610cf2565b80156103e65780601f106103bb576101008083540402835291602001916103e6565b820191906000526020600020905b8154815290600101906020018083116103c957829003601f168201915b505050505081526020016001820154815250508152602001906001019061033a565b50505050905090565b60035481565b6000818154811061042757600080fd5b906000526020600020906002020160009150905080600001805461044a90610cf2565b80601f016020809104026020016040519081016040528092919081815260200182805461047690610cf2565b80156104c35780601f10610498576101008083540402835291602001916104c3565b820191906000526020600020905b8154815290600101906020018083116104a657829003601f168201915b5050505050908060010154905082565b600160009054906101000a900473ffffffffffffffffffffffffffffffffffffffff1673ffffffffffffffffffffffffffffffffffffffff163373ffffffffffffffffffffffffffffffffffffffff1614610563576040517f08c379a000000000000000000000000000000000000000000000000000000000815260040161055a90610d95565b60405180910390fd5b600060405180604001604052808381526020016000815250908060018154018082558091505060019003906000526020600020906002020160009091909190915060008201518160000190816105b99190610f61565b5060208201518160010155505050565b60045481565b600160009054906101000a900473ffffffffffffffffffffffffffffffffffffffff1681565b60026020528060005260406000206000915054906101000a900460ff1681565b6000604051905090565b600080fd5b600080fd5b6000819050919050565b61063c81610629565b811461064757600080fd5b50565b60008135905061065981610633565b92915050565b6000602082840312156106755761067461061f565b5b60006106838482850161064a565b91505092915050565b600081519050919050565b600082825260208201905092915050565b6000819050602082019050919050565b600081519050919050565b600082825260208201905092915050565b60005b838110156106f25780820151818401526020810190506106d7565b60008484015250505050565b6000601f19601f8301169050919050565b600061071a826106b8565b61072481856106c3565b93506107348185602086016106d4565b61073d816106fe565b840191505092915050565b61075181610629565b82525050565b60006040830160008301518482036000860152610774828261070f565b91505060208301516107896020860182610748565b508091505092915050565b60006107a08383610757565b905092915050565b6000602082019050919050565b60006107c08261068c565b6107ca8185610697565b9350836020820285016107dc856106a8565b8060005b8581101561081857848403895281516107f98582610794565b9450610804836107a8565b925060208a019950506001810190506107e0565b50829750879550505050505092915050565b6000602082019050818103600083015261084481846107b5565b905092915050565b61085581610629565b82525050565b6000602082019050610870600083018461084c565b92915050565b600082825260208201905092915050565b6000610892826106b8565b61089c8185610876565b93506108ac8185602086016106d4565b6108b5816106fe565b840191505092915050565b600060408201905081810360008301526108da8185610887565b90506108e9602083018461084c565b9392505050565b600080fd5b600080fd5b7f4e487b7100000000000000000000000000000000000000000000000000000000600052604160045260246000fd5b610932826106fe565b810181811067ffffffffffffffff82111715610951576109506108fa565b5b80604052505050565b6000610964610615565b90506109708282610929565b919050565b600067ffffffffffffffff8211156109905761098f6108fa565b5b610999826106fe565b9050602081019050919050565b82818337600083830152505050565b60006109c86109c384610975565b61095a565b9050828152602081018484840111156109e4576109e36108f5565b5b6109ef8482856109a6565b509392505050565b600082601f830112610a0c57610a0b6108f0565b5b8135610a1c8482602086016109b5565b91505092915050565b600060208284031215610a3b57610a3a61061f565b5b600082013567ffffffffffffffff811115610a5957610a58610624565b5b610a65848285016109f7565b91505092915050565b600073ffffffffffffffffffffffffffffffffffffffff82169050919050565b6000610a9982610a6e565b9050919050565b610aa981610a8e565b82525050565b6000602082019050610ac46000830184610aa0565b92915050565b610ad381610a8e565b8114610ade57600080fd5b50565b600081359050610af081610aca565b92915050565b600060208284031215610b0c57610b0b61061f565b5b6000610b1a84828501610ae1565b91505092915050565b60008115159050919050565b610b3881610b23565b82525050565b6000602082019050610b536000830184610b2f565b92915050565b7f566f74696e6720706572696f64206973206e6f74206163746976650000000000600082015250565b6000610b8f601b83610876565b9150610b9a82610b59565b602082019050919050565b60006020820190508181036000830152610bbe81610b82565b9050919050565b7f596f75206861766520616c726561647920766f74656400000000000000000000600082015250565b6000610bfb601683610876565b9150610c0682610bc5565b602082019050919050565b60006020820190508181036000830152610c2a81610bee565b9050919050565b7f4e487b7100000000000000000000000000000000000000000000000000000000600052603260045260246000fd5b7f4e487b7100000000000000000000000000000000000000000000000000000000600052601160045260246000fd5b6000610c9a82610629565b9150610ca583610629565b9250828201905080821115610cbd57610cbc610c60565b5b92915050565b7f4e487b7100000000000000000000000000000000000000000000000000000000600052602260045260246000fd5b60006002820490506001821680610d0a57607f821691505b602082108103610d1d57610d1c610cc3565b5b50919050565b7f4f6e6c79206f776e65722063616e2063616c6c20746869732066756e6374696f60008201527f6e00000000000000000000000000000000000000000000000000000000000000602082015250565b6000610d7f602183610876565b9150610d8a82610d23565b604082019050919050565b60006020820190508181036000830152610dae81610d72565b9050919050565b60008190508160005260206000209050919050565b60006020601f8301049050919050565b600082821b905092915050565b600060088302610e177fffffffffffffffffffffffffffffffffffffffffffffffffffffffffffffffff82610dda565b610e218683610dda565b95508019841693508086168417925050509392505050565b6000819050919050565b6000610e5e610e59610e5484610629565b610e39565b610629565b9050919050565b6000819050919050565b610e7883610e43565b610e8c610e8482610e65565b848454610de7565b825550505050565b600090565b610ea1610e94565b610eac818484610e6f565b505050565b5b81811015610ed057610ec5600082610e99565b600181019050610eb2565b5050565b601f821115610f1557610ee681610db5565b610eef84610dca565b81016020851015610efe578190505b610f12610f0a85610dca565b830182610eb1565b50505b505050565b600082821c905092915050565b6000610f3860001984600802610f1a565b1980831691505092915050565b6000610f518383610f27565b9150826002028217905092915050565b610f6a826106b8565b67ffffffffffffffff811115610f8357610f826108fa565b5b610f8d8254610cf2565b610f98828285610ed4565b600060209050601f831160018114610fcb5760008415610fb9578287015190505b610fc38582610f45565b86555061102b565b601f198416610fd986610db5565b60005b8281101561100157848901518255600182019150602085019450602081019050610fdc565b8683101561101e578489015161101a601f891682610f27565b8355505b6001600288020188555050505b50505050505056fea26469706673582212205e8fa839f4d62086fe34e4e6de470ab275a7f3214575585398e26f8a90e8552f64736f6c634300081c0033",
  "linkReferences": {},
  "deployedLinkReferences": {}
}